:020000040000FA
:10000000F8140020950200009F020000A1020000E9
:10001000A3020000A3020000A3020000A30200004C
:10002000A3020000A3020000A3020000A30200003C
:10003000A3020000A3020000F3A80000F5AA00003C
:100040000D10000017100000211000002B10000000
:10005000351000003F100000491000005310000050
:100060005D10000067100000711000007B100000A0
:10007000851000008F10000099100000A3100000F0
:10008000AD100000B7100000C1100000CB10000040
:10009000D5100000DF100000E9100000F310000090
:1000A000FD10000007110000111100001B110000DD
:1000B000251100002F11000039110000431100002C
:1000C00000F002F800F0AFF80CA030C8083824188F
:1000D0002D18A246671EAB4654465D46AC4201D180
:1000E00000F0A1F87E460F3E0FCCB6460126334203
:1000F00000D0FB1AA246AB4633431847D4CF0000CA
:10010000F4CF00000023002400250026103A01D37C
:1001100078C1FBD8520700D330C100D50B607047BF
:1001200010B56E2902D10BF091FD10BD702902D1DE
:100130000BF0CBFE10BD662902D10CF087FD10BD7F
:10014000652902D10CF082FD10BD672902D10CF0A7
:100150007DFD10BD612902D1C046C04610BD0368B7
:100160001B0A01D380231943692902D10BF00AFB32
:1001700010BD642902D10BF005FB10BD752902D119
:100180000BF000FB10BD6F2902D10BF049FE10BD32
:10019000782902D10BF086FE10BDE92902D10BF0BF
:1001A000E5FD10BDE42902D10BF0E0FD10BDF529FD
:1001B00002D10BF0DBFD10BDEF2902D10BF03CFEAC
:1001C00010BDF82902D10BF07BFE10BD0368DB09DE
:1001D00001D380231943632902D10CF0EAF810BD42
:1001E000732902D10CF0EDF810BDE32902D10CF017
:1001F000F7F810BDF32902D10CF0FAF810BD002079
:1002000010BD1FB50CF040F90400002000210CF0D7
:1002100007FD401C6060002000210CF0EBFCE0605A
:100220001FBD10B510BD0CF007F91146FFF7E9FF2F
:1002300000F011FA0CF028FC03B4FFF7F2FF03BC46
:100240000CF070FC10B500F0D2FC0446A100601860
:100250000AF0C1FD10BD002070477FB5044600F0D4
:10026000C6FC002103910290094A002303990298D9
:100270000BF0F4F902460B46019100902046002154
:100280000BF0ECF905460E462846314604B070BD29
:1002900040420F0000200649086006480047FEE77C
:1002A000FEE7FEE704480549034A054B7047000096
:1002B00000810440C1000000F8130020F814002061
:1002C000F813002070B50446002500BF00BF00F001
:1002D0008BF8054600BF0AF093FC00BF1B48046082
:1002E00000BF0AF06DFC00BF284600F081F800BF97
:1002F00000BF70BD10B50120FFF7E4FF10BD01463F
:10030000134A4A43134BD21850004008704770B547
:10031000002600BF00BF00F067F8064600BF0AF0E5
:100320006FFC00BF094805682846FFF7E8FF044650
:100330000648046000BF0AF043FC00BF304600F0EE
:1003400057F800BF00BF204670BD000030E0FF1F1F
:100350006D4EC6413930000070470000002004E0B7
:10036000002182001D4B9950401C0228F8D3704791
:1003700070B50025194C03E028462030C5B2241D75
:1003800020680028F8D020680AF08FFD4019C5B217
:10039000284670BD70B54209C306DB0E01211F243B
:1003A000E51A0C46AC40214694000C4D2C590C43E8
:1003B00095000A4E745170BD70B54209C306DB0E3C
:1003C00001211F24E51A0C46AC4021469400034D40
:1003D0002C598C439500014E745170BD38E0FF1FBD
:1003E00072B6704762B67047EFF3108072B670470E
:1003F00080F31088704730BF704720BF7047704748
:10040000FFFFFFFFFFFFFFFFFFFFFFFFFEFFFFFFFD
:100410001FB538E003AA0021012009F065FC04E0C3
:1004200003AA0021012009F05FFC012000F07EFCFE
:100430000128F5D003A80023042201210090A1483F
:1004400006F06EFA03A802AB0022114600909E4807
:1004500005F06BFA03AA00219B4805F0F7FC04E0C5
:1004600003AA0021012009F03FFC012000F05EFCFE
:100470000028F5D003A8002132230A4600910190FC
:10048000084609F0CDFCC5E786B000BF17E005A817
:1004900003A904AB0022009101901146894805F0A0
:1004A000DAFFFFF7D8FE012000F014FC05A80021B8
:1004B0000B46012200910190084609F0B1FCE6E7E5
:1004C0000EB50CE08149824800F05BFC02A80021D7
:1004D00032230A4600910190084609F0A1FCF1E799
:1004E0000EB500207B4908707B4908707B49087075
:1004F0007B4908701FE08020009079480378774896
:100500000278754801787348007800F0D2FE71488F
:100510000078401C6F490870084600780A2801D10D
:100520000020087002A800210B46012200910190D2
:10053000084609F075FCDEE700B58BB00AA8032178
:1005400000220592069207910890104680210C2205
:10055000644B019302920391049006200023624AA7
:1005600062A10090644807F01EFB0AA80321002244
:100570000592069207910890104680210C225F4B4D
:100580000193029203910490042000235C4A5DA130
:100590000090604807F007FB0AA80321002205929B
:1005A000069207910890104680210C225A4B019325
:1005B00002920391049005200023584A58A100900C
:1005C0005A4807F0F0FA0AA8032100220592069281
:1005D00007910890104680210C22554B01930292FE
:1005E0000391049003200023524A53A100905548E0
:1005F00007F0D9FA0BB000BD70470EB500F0F9FA5C
:1006000000F02EFB4B22D2010221002000F047FF18
:1006100000F0D7FD02A806F075FE0AF0FFFBFFF719
:10062000EBFFFFF789FF15E002A800210B4602222D
:1006300000910190084609F0F3FB43A001F0AAF8ED
:1006400002AA00210A2009F04FFB6846018942A056
:1006500001F0A0F8E8E78CB00AF03EFB01F022FAC6
:10066000FFF748FE0AA940A00AF069FB00F057FC1A
:100670000BA802F0CCFC0BAA3FA1134804F0F5FE36
:100680000BAB0A2240A10F4805F039FD0BA803214E
:1006900000220592069207910890104680210C22B4
:1006A0003D4B0193029203910490022000233B4AA8
:1006B0003BA100903E4807F076FA0BA802F0DCFE62
:1006C00000BFFEE718EFFF1FECEEFF1F05E0FF1F66
:1006D00004E0FF1F00E0FF1F01E0FF1F02E0FF1F1B
:1006E00003E0FF1FB8E4FF1FE10400004C43442077
:1006F0005461736B00000000FCE3FF1F74E7FF1FF1
:10070000C104000054534920536C6964657220543D
:1007100061736B00B8E6FF1F30EAFF1F8904000019
:100720004C4544205461736B0000000074E9FF1FC6
:10073000ECECFF1F110400004B4559205461736B12
:100740000000000030ECFF1F48656C6C6F20776F75
:10075000726C640A000000006F735F657272203D66
:100760002025640A000000004D4B4C34365A3235C7
:1007700036564C4C340000004D79204170702E20CC
:100780004D757465780000004D79204170702051DE
:100790007565756500000000FCE1FF1FFB050000AA
:1007A00053746172747570205461736B00000000A3
:1007B00040E1FF1FFE48806B01210843FC4988632C
:1007C0000020FC4908600820486005200860704748
:1007D000F948007A0E218843F749087208464078A4
:1007E00001210843F4494870084600780221084373
:1007F000F149087000BFF0488079C007C00F002899
:1008000002D100BF012000E000200028F3D1704792
:1008100010B5EA4A126804231A43E84B1A601A46D4
:10082000126880239A43E54B1A601A461268102317
:100830001A40002A01D0012100E00021DF4A12689D
:1008400010239A43DD4B1A601A46126840239A43DC
:10085000DA4B1A601A46126880231A43D74B1A6083
:10086000002023E00C224243D54B9A5C1207D34B65
:100870005A601A46526801239B051A43CF4B5A60AF
:1008800000BFCE4A126804231A40002AF9D0CB4A8E
:1008900012681A43C94B1A601A46526894B20C2265
:1008A0004243C74BD2181481421CD0B20228D9D37C
:1008B000C24A126880239A43C04B1A601A461268D3
:1008C00040231A43BD4B1A60002906D01A4612680D
:1008D00010231A43B94B1A6005E0B84A1268102376
:1008E0009A43B64B1A60B54A126880231A43B34B39
:1008F0001A600C224243B24B9A5C1207AF4B5A600B
:100900001A46526801239B051A43AC4B5A6010BD2E
:100910000121AB4A921E5170A84909680422114373
:10092000A64A1160114649688BB2A549891E09780B
:100930000C225143A24A89188B80911E09780C22FF
:1009400051439F4A89188B88911E09780C22514384
:100950009B4A89180989591A08B2002808DA002325
:10096000911E09780C225143954A8918CB8007E0E3
:100970009349891E09780C225143914A8918C880ED
:100980008F49891E0978012907D28D49891E097866
:10099000491C8B4A921E117003E00021884A921E66
:1009A00011708749891E09780C225143844A515C91
:1009B0000907824A51601146496801229205114394
:1009C0007E4A5160704710B500207D49891E4870ED
:1009D000092088700A217A48801E817364218180F1
:1009E00001827348806B202108437149886300208D
:1009F00074490860486074491A2000F09EFA1A2071
:100A000000F091FA6D480068704908436B4908602E
:100A1000084600688021084368490860FFF7F8FE2F
:100A200010BDFF2004306A49C86008636948406906
:100A30000821884367494861084640690121090344
:100A40008843644948617047002817D0012802D0C4
:100A5000022825D108E05F4940314968202211432E
:100A60005C4A403251601CE05A4980314968012299
:100A700052071143574A8032516012E055494031C4
:100A8000496820221143534A403251605149803114
:100A900049680122520711434E4A8032516000E0FA
:100AA000704700BF00BFFBE700B5FF2001304A4997
:100AB00048614A494863474840304069202108431B
:100AC0004449403148614348803040690121490729
:100AD00008434049803148610020FFF7B5FF00BD61
:100AE00038B5002400BF00BFFFF77EFC044600BFFE
:100AF0000AF086F800BF3A482D49403148609420FA
:100B00002D4948709820087000BF2B48807910212B
:100B10000840102802D100BF012000E0002000287A
:100B2000F3D100BF244880791C2108408008009040
:100B300000980228F6D103201F49087178204871D7
:100B400000BF1D48807920210840002802D100BF45
:100B5000012000E000200028F3D100BF1648807972
:100B600040210840002802D100BF012000E0002001
:100B70000028F3D110480078FF21C13188430E4985
:100B8000087000BF0C4880791C2108408008009044
:100B900000980328F6D1064840680121090408435B
:100BA0000349486000BF0AF00BF800BF204619E077
:100BB0000080044000000440004006400050044013
:100BC0004AEFFF1F40A0044011090000608B87100E
:100BD00000B0044080F00F4000C0044040D004400A
:100BE00000000110FFF704FC00BF00BF38BDBB4888
:100BF000704710B500F0DDF9B948806B1F2149023C
:100C00000843B7498863B748B7494861084600694F
:100C100004210843B44908610846006902210843D9
:100C2000B14908610846006901210843AE490861DD
:100C3000FFF7DDFF0446AD490AF09EFEAC490860AF
:100C4000084600680860FFF74BFFFFF72DFFFFF72E
:100C5000E8FEFFF7B8FEFFF7BBFDFFF7ABFD10BDE9
:100C600070B5FFF7C4FF0446A248016820460AF0A9
:100C700083FE0546284609F05BFF70BD002815D0AD
:100C8000012802D0022821D106E09B498968202250
:100C90001143994A91601AE09749403189680122CD
:100CA00052071143944A4032916010E0924989689A
:100CB00020221143904A91608F4940318968012276
:100CC000520711438C4A4032916000E0704700BFE8
:100CD00000BFFBE7002815D0012802D0022821D14F
:100CE00006E08549C96820221143834AD1601AE091
:100CF00081494031C9680122520711437E4A40327E
:100D0000D16010E07C49C968202211437A4AD16041
:100D100079494031C968012252071143764A40326D
:100D2000D16000E0704700BF00BFFBE7014601292A
:100D300002D0022921D10FE06F4840380069082213
:100D40001040002802D100BF012000E00020002850
:100D500001D00120704711E0674840380069012246
:100D600012031040002802D100BF012000E0002043
:100D7000002801D00120EDE700E000BF00BF002007
:100D8000E8E770B504460D465C48407801285ED11E
:100D900000205A494870084601898088814204DC55
:100DA0005648818A008A814248DD544A1389928AD2
:100DB0009918524A128964235A4310460AF0E6FDF4
:100DC000C1B24E48017302461389928A99180246AD
:100DD000928A64235A4310460AF0D8FDC1B24748AC
:100DE00001760146097B28225143084664210AF016
:100DF000C3FDC1B2414841730146097E28225143D7
:100E0000084664210AF0B8FDC1B23C48417601466B
:100E1000097B6422521A0146097E5018C10F091835
:100E2000C905090E29703548407B2821091A334825
:100E3000407E0818C005000E207008E000212F48F1
:100E4000017301764173417600202870207070BDD7
:100E500010B502467D23DB00534358181DE00023E4
:100E6000274CE3602346DB68264C1B19244CA36007
:100E700023461B6880242343214C236000BF204B62
:100E80001B6880242340002B02D100BF012300E017
:100E90000023002BF3D11B4BC01A1A4B9842DED80B
:100EA000002819D00023164CE3602346DB681B188A
:100EB000A36023461B6880242343114C236000BF9A
:100EC0000F4B1B6880242340002B02D100BF01235D
:100ED00000E00023002BF3D110BD0000006CDC0209
:100EE0000080044080841E0000E000E040420F00CB
:100EF00008E0FF1F58CD0000C0F00F4048EFFF1F73
:100F000000000440FFFF0000704710B504466A2C43
:100F100004D221461031C8B20AF00EF910BD10B546
:100F2000FFF75EFA10BD10B504466A2C04D22146C4
:100F30001031C8B20AF065F910BD70B504460D460F
:100F400000266A2C14D200BF00BFFFF74DFA0646F8
:100F500000BF09F055FE00BFA0007C490D5000BF46
:100F600009F02EFE00BF3046FFF742FA00BF00BF77
:100F700070BD70B504460D4600266A2C17D200BF1E
:100F800000BFFFF731FA064600BF09F039FE00BF87
:100F900021461031C8B229460AF0E6F900BF09F02F
:100FA0000FFE00BF3046FFF723FA00BF00BF70BD41
:100FB000704710B5002404E065492046FFF7BDFFE7
:100FC000641C6A2CF8D310BD70B50446002600BF1F
:100FD00000BFFFF709FA064600BF09F011FE00BF87
:100FE00002F0B0F800BF09F0EBFD00BF3046FFF79C
:100FF000FFF900BF00BF6A2C05D2A00053490D586D
:10100000002D00D0A84702F0AEF870BD10B500204A
:10101000FFF7DAFF10BD10B50120FFF7D5FF10BDB7
:1010200010B50220FFF7D0FF10BD10B50320FFF769
:10103000CBFF10BD10B50420FFF7C6FF10BD10B5E3
:101040000520FFF7C1FF10BD10B50620FFF7BCFF5C
:1010500010BD10B50720FFF7B7FF10BD10B5082071
:10106000FFF7B2FF10BD10B50920FFF7ADFF10BDAF
:1010700010B50A20FFF7A8FF10BD10B50B20FFF731
:10108000A3FF10BD10B50C20FFF79EFF10BD10B5DB
:101090000D20FFF799FF10BD10B50E20FFF794FF4C
:1010A00010BD10B50F20FFF78FFF10BD10B5102039
:1010B000FFF78AFF10BD10B51120FFF785FF10BDA7
:1010C00010B51220FFF780FF10BD10B51320FFF7F9
:1010D0007BFF10BD10B51420FFF776FF10BD10B5D3
:1010E0001520FFF771FF10BD10B51620FFF76CFF3C
:1010F00010BD10B51720FFF767FF10BD10B5182001
:10110000FFF762FF10BD10B51920FFF75DFF10BD9E
:1011100010B51A20FFF758FF10BD10B51B20FFF7C0
:1011200053FF10BD10B51C20FFF74EFF10BD10B5CA
:101130001D20FFF749FF10BD10B51E20FFF744FF2B
:1011400010BD10B51F20FFF73FFF10BD64EFFF1F5C
:10115000B10F0000B7484068FF2109028843B54934
:101160004860B4484038006BFF2109028843B14908
:10117000403908630846406A0002000A486208468F
:10118000806A000A00028862AA484069FF210902B9
:101190008843A849486108464068FF2109048843FC
:1011A000A4494860A3484038806AFF210904884365
:1011B000A049403988620846806A0002000A8862B5
:1011C000704700B59C48806B0121C90408439A49C7
:1011D00088639A4800689949086099480069984965
:1011E00008619848C0699749C86108468069886164
:1011F00095484068944948609248406991494861DF
:1012000090484038C0698F494039C8610846006A33
:1012100008628B4840698A4948618B4880688A49DE
:10122000886088484038806A864940398862084624
:10123000C06AC86285487F494039086084480861AF
:1012400084497C4840384161032080047949403911
:101250008861814977484038C16176488068000AD2
:101260000002401C7349886008464069000A000279
:10127000801C48616F484038006B0002000A090575
:1012800040186C49403908630846006BFF21090487
:1012900088430121C904401866494039086308465B
:1012A000006880210843634940390860FFF752FF16
:1012B00000BD70B50546049C28090001002810D126
:1012C0000809000100280CD110090001002808D1EC
:1012D00018090001002804D18E262046B0430028BA
:1012E00001D0002070BD53484068FF263602B0434D
:1012F0005A4E765D360230434E4E70604D4840384F
:10130000006BFF263602B043554E765D3602304301
:10131000484E403E30633046406A0002000A4F4E5D
:10132000765C36063043434E403E70623046806AFB
:10133000000A00024A4E765C30433E4E403EB062A8
:101340003C484069FF263602B043444EB65C360244
:101350003043384E706130464068FF263604B04353
:101360003F4EB65C36043043324E706031484038F0
:10137000806AFF263604B043384EF65C36043043AC
:101380002C4E403EB0623046806A0002000A344E65
:10139000F65C36063043274E403EB06202202040C5
:1013A000022802D100BF012000E00020002808D060
:1013B00020484038006BFF26013630431D4E403E2A
:1013C000306304202040042802D100BF012000E047
:1013D0000020002807D017484038806A0126304393
:1013E000144E403EB06208202040082802D100BFC1
:1013F000012000E00020002806D00E4840680126A9
:10140000360430430B4E706080202040802802D18B
:1014100000BF012000E00020002808D00548403827
:10142000806A012636063043024E403EB0620120FB
:1014300058E70000403005400080044000C00440F0
:1014400000D0044040A0044040B004406320828F9C
:10145000800D0E0060013000000110000CE0FF1F45
:101460001CE0FF1FD548007803210843D3490870CA
:101470000846007A08720846C07814210843CF490C
:10148000C8700846407801210843CC49487000BF25
:10149000CA488079C007C00F0028F9D07047F7B557
:1014A00082B0C74D0298401E8000C6490C58029871
:1014B000002868D10398002802D0012819D109E03A
:1014C000FFF7D0FFC0484068032189060843BE49A2
:1014D00048600FE0BC484068012189060843BA49CA
:1014E000486008464068012109040843B64948603D
:1014F00000E000BF00BF03200002B4498863C86356
:10150000B148406B09150843AF494863E8780C219E
:101510008843E8700398002803D17D2040010190A2
:1015200004E00398012801D1A9480190049A11010F
:101530007D23DB00019A5A4310460AF01DFA86B259
:10154000287847097F011F200002304000123843ED
:1015500028706E700F209A498872002088708871F8
:1015600008724872084600791F210843944908719F
:1015700008464079C021084391494871E8780C2118
:101580000843E8703FE00298012802D0022819D1F0
:101590000BE0032000028F49086048608A48406BD6
:1015A000C9140843884948630DE0032000028749B5
:1015B0008863C8638448406B01210903084382495A
:1015C000486300E000BF00BFE0780C218843E07072
:1015D0000498010180480AF0CFF986B220784709C3
:1015E0007F011F20000230400012384320706670D7
:1015F0000020A070A0711F20207100206071E07891
:101600000C210843E07005B0F0BD70B502466C4C8B
:10161000501E80006B4E3558002310E0002A06D182
:10162000207980263040002808D0E1710AE028792E
:1016300080263040002801D0E97103E05B1C674838
:101640008342EBD300BF6548834201D3012070BDC4
:101650000020FCE7F0B507460D461646002408E0DA
:10166000315D3846FFF7D1FF002800D003E0601C51
:1016700084B2AC42F4DB00BFAC4201DA0120F0BD21
:101680000020FCE7F0B507460D4600242E4600BFBB
:1016900009E0315D3846FFF7B8FF002801D001208E
:1016A000F0BD601C84B2305D0028F2D100BFF7E7C6
:1016B000F0B50246424C561EB600424FBD590023BB
:1016C00014E0002A08D1267920273E40002E0CD0B5
:1016D000E07900260E700CE02E7920273E40002E87
:1016E00003D0E87900260E7003E05B1C3B4EB3424A
:1016F000E7D300BF394EB34202D3FF2001260E705C
:10170000F0BDF8B507460D461646002000900024AF
:1017100006E069463846FFF7CBFF3055601C84B2BF
:10172000AC4203DA684600780028F2D0AC4201DA15
:101730000120F8BD0020FCE770B50446204D601E76
:10174000800020490E58002C04D1E878202108435D
:10175000E87003E0F07820210843F0702049085D2C
:10176000FFF7E1FB70BD70B50446154D601E8000AB
:1017700014490E58002C04D1E87820218843E870E1
:1017800003E0F07820218843F0701549085DFFF7E9
:10179000BCFB70BD0FB400B5C1B043A84090684613
:1017A000409A429909F0DCFF69460020FFF76AFF82
:1017B0000020409041B008BC04B0184700400640EB
:1017C00000A006405CCC0000008004400090044073
:1017D00080BB000000D0044000366E01BBFB00005F
:1017E0002CE0FF1F0146412903DB5A2901DC0122BD
:1017F00000E00022012A08D0612903DB7A2901DCFC
:10180000012200E00022012A01D1012200E0002291
:10181000104670470146412903DB5A2901DC0122A9
:1018200000E00022012A08D0612903DB7A2901DCCB
:10183000012200E00022012A01D1012200E0002261
:10184000012A08D0302903DB392901DC012200E01C
:101850000022012A01D1012200E000221046704737
:101860000146612903DB7A2901DC012200E0002224
:10187000104670470146412903DB5A2901DC012249
:1018800000E00022104670470146302903DB392969
:1018900001DC012200E00022104670470146302999
:1018A00003DB372901DC012200E0002210467047EB
:1018B0000146302901DB392907DD412901DB4629B1
:1018C00003DD612903DB662901DC012200E000223F
:1018D000104670470146202901D0092901D1012273
:1018E00000E00022104670470146202909D00D294A
:1018F00007D00A2905D00C2903D0092901D00B29CA
:1019000001D1012200E00022104670470146202943
:1019100003DB7E2901DC012200E000221046704733
:101920000146212903DB7E2901DC012200E000229F
:10193000104670470146202903DB7E2901DC012285
:1019400000E00022012A37D1202909D00D2907D033
:101950000A2905D00C2903D0092901D00B2901D16E
:10196000012200E00022002A26D1412903DB5A2966
:1019700001DC012200E00022012A08D0612903DBFA
:101980007A2901DC012200E00022012A01D1012292
:1019900000E00022012A08D0302903DB392901DCCC
:1019A000012200E00022012A01D1012200E00022F0
:1019B000002A01D1012200E00022104670470146B2
:1019C0004AB2002A01DB1F2901DD7F2901D1012252
:1019D00000E00022104670470146412903DB5A29E6
:1019E00001DC012200E00022012A02D10A46203255
:1019F00000E00A46D0B270470146612903DB7A292C
:101A000001DC012200E00022012A02D10A46203A2C
:101A100000E00A46D0B27047F0B504460B462046B7
:101A2000FFF7EAFF05461846FFF7E6FF0646B54210
:101A300001D1012000E0002007463846F0BD00003B
:101A400030B5039C0A60651EAD184D608A60FE4D7E
:101A50002D68CD600B61FC4D296030BDFEB505469B
:101A60000E4617461C460020019000BF00BFFEF73F
:101A7000BBFC019000BF09F0C3F800BF00943A46D8
:101A800031462846089BFFF7DBFF00BF09F098F8B6
:101A900000BF0198FEF7ACFC00BF00BFEB490998FE
:101AA0000180FEBD3EB50020E7490860E84C02A871
:101AB0000121CB02224600910190E649E6A0FFF702
:101AC000CDFF68460089E149884203D000BF09F094
:101AD0000BF900BF3EBDF7B50B460026002404E01D
:101AE000360237461F433E46641C042CF8D3029846
:101AF00000998D07AD0F0099002D09D02C4603E009
:101B00000B70491C401E641C002801D0042CF7D324
:101B10000A4601E040C2001F0428FBD2114602E041
:101B20000B70491C401E0028FAD1FEBD30B5054699
:101B30000C46224600212846FFF7CDFF30BDF7B501
:101B400083B0059A039804990F1A0297029F042FF5
:101B500026D38507AD0F8F07BF0F0197019FBD42A9
:101B600001D1012700E000270097009F012F17D126
:101B7000002D0BD02E4605E00F780770491C401C45
:101B8000521E761C002A01D0042EF5D303460C46C3
:101B900002E080CC80C3121F042AFAD218462146E4
:101BA00004E00F780770491C401C521E002AF8D12F
:101BB00006B0F0BDF7B586B0079E069DAE4205D9CA
:101BC00006A807C8FFF7BBFF09B0F0BD089C089C3A
:101BD00006980019451E089C07980019461EA81B68
:101BE00005900598042837D3AF07BF0FB007800FC3
:101BF00001900198874201D1012000E0002000906F
:101C00000098012828D1032F10D078B2029008E064
:101C100030782870761E6D1E641E0298401E40B2F9
:101C20000290002C02D002980028F1DAE81E0490FD
:101C3000F01E03900AE0039801680498016003987D
:101C4000001F03900498001F0490241F042CF2D25C
:101C50000498C51C0398C61C04E030782870761ED2
:101C60006D1E641E002CF8D100BFADE7F7B585B03E
:101C70001546002D02D1012008B0F0BD05980028BE
:101C800000D1F9E70698002800D1F5E7012429469C
:101C900005984219069843199007800F02909F07F4
:101CA000BF0F0197019F0298B84201D1012000E0C7
:101CB00000200090009801282DD10298002814D00F
:101CC000029803900AE0521E5B1E10781F78B842FB
:101CD00000D00024491E0398401E0390012C04D11B
:101CE000002902D003980028EDD1012C13D10492D1
:101CF0001E460AE00498001F0490361F04980068EE
:101D00003768B84200D00024091F012C01D10429F2
:101D1000F0D2049A334607E0521E5B1E10781F78FB
:101D2000B84200D00024491E012C01D10029F3D172
:101D30002046A1E7FFB582B004460498984201D935
:101D4000049800E018460090A6680098401E86435C
:101D5000A7680098401E0740002F01D1002000E036
:101D600000983118039808185E1EB043039E8E1920
:101D70005F1E3E40002E00D100E01E468219A6687C
:101D80006068801B451CA068101A0190019885426C
:101D90000DD20B98002803D00198461B0B980660C3
:101DA0002A4EC9360C980680002006B0F0BDA2600D
:101DB000264E0C9806800846F7E7F0B585B00C462D
:101DC00015461E460C9F0020029000BF00BFFEF784
:101DD0000BFB029000BF08F013FF00BF0B980197A8
:101DE00000903246294620460A9BFFF7A3FF039046
:101DF0003888164988420BD000BF08F0E1FE00BFCA
:101E00000298FEF7F5FA00BF00BF002005B0F0BD54
:101E100000BF08F0D5FE00BF0298FEF7E9FA00BF48
:101E200000BF0398F2E7F0B585B005460E461746A9
:101E30001C46012033462A46064901970294009029
:101E40000020FFF7BAFF0BE034E0FF1F102700006F
:101E50000CF1FF1F0CF9FF1F4865617000000000C6
:101E600003902088FE49884202D1FD480A30208034
:101E7000039805B0F0BDFFB585B004460E46154683
:101E800000200190002C00D1F64C00BF00BFFEF7EF
:101E9000ABFA019000BF08F0B3FE00BF711EA0684E
:101EA0008843721EA1681140002900D100E031462C
:101EB0004018029000BF08F083FE00BF0198FEF7B3
:101EC00097FA00BF00BF21686068401A471C21686C
:101ED0000298401A03900398381A0490002D06D0F7
:101EE0006F60039828602068A8600298E860DC4969
:101EF000C93908980180049809B0F0BD70B505464D
:101F00000C46234600222946D648FFF7B4FF064672
:101F10002088D349C939884201D0002070BD30469D
:101F2000FCE770B504460D46002600BF00BFFEF773
:101F30005BFA064600BF08F063FE00BF2068A060A1
:101F400000BF08F03DFE00BF3046FEF751FA00BF6B
:101F500000BFC348C938288070BDFFB583B00746AD
:101F60000C461D46002C00D1BE4C0020012104234C
:101F700002950091019021463846059AFFF71DFF12
:101F80000646304607B0F0BDFFB583B006460C46A6
:101F90000C9F002C00D1B34C01210D9801970091AA
:101FA000029021463046069B059AFFF706FF05463C
:101FB000284607B0F0BDFFB583B00C460D9F0C9EC0
:101FC000002C00D1A74C20696946C1C12146069B5F
:101FD000059A0398FFF7F1FE0546284607B0F0BDC5
:101FE000F0B503460E461446701EC7189E48016899
:101FF00018E00A684D68934206D1AF4204D14F20E1
:10200000C00120800846F0BD934201D3AB4203D902
:10201000934206D8974204D391485A382080084604
:10202000F1E7C9680029E4D18D48C9382080002033
:10203000E9E7002202604260C260826002614261A0
:10204000874AC93A0A807047FFB58BB005461E46DD
:10205000179C0020049021462846FFF7EAFF2088BD
:102060007F49C939884201D00FB0F0BD0C980028D3
:1020700002D17C480A904FE000BF00BFFEF7B4F9E0
:10208000049000BF08F0BCFD00BF22460D990C98DB
:10209000FFF7A6FF0A90208874494018002804D052
:1020A0006F2825D0702822D12CE016980123042215
:1020B0001421019400906B48FFF73CFE0A902088A1
:1020C0006749C939884209D000BF08F079FD00BFCF
:1020D0000498FEF78DF900BF00BFC5E70D980123F6
:1020E000009000200C9A0A99FFF7AAFC0AE000BFB2
:1020F00000BF08F065FD00BF0498FEF779F900BF46
:1021000000BFB1E700BF00BF08F05AFD00BF049850
:10211000FEF76EF900BF00BF1598421E1499914357
:10212000401E149A1040002800D100E015980818AD
:102130000890089870430990012116980294009124
:1021400001904BA0159B099A0A99FFF736FE0746A6
:1021500020884349C939884200D085E70121169873
:10216000B20004230294009101903E4945A0FFF77C
:1021700024FE286120883A49C939884200D073E793
:102180000597002006900BE005982A6906998900BA
:10219000505008990598401805900698401C0690E4
:1021A0000698B042F0D30998401EC01907902F60DE
:1021B00007986860AE600898E8606E6100BF53E7FA
:1021C000F8B5044615460027002600BF00BFFEF7FD
:1021D0000BF9074600BF08F013FD00BF6069002837
:1021E0000BD06069401E60616169890020694658B2
:1021F0000020626992002169885000BF08F0E0FC6D
:1022000000BF3846FEF7F4F800BF00BF002E03D130
:102210001348401D288002E01148C9382880304604
:10222000F8BDF8B504460E461546002700BF00BFAE
:10223000FEF7DAF8074600BF08F0E2FC00BFA1682D
:102240006069884230D300BF08F0BAFC00BF38464E
:10225000FEF7CEF800BF00BF0148001D2880F8BD82
:10226000D92700000CF9FF1F34E0FF1FF0D8FFFF53
:10227000556E6E616D65642073746174696320705E
:102280006F6F6C00556E6E616D6564207374617460
:10229000696320706F6F6C206672656520626C6B7D
:1022A0002074626C0000000061698900206946505A
:1022B0006069401C606100BF08F082FC00BF3846C6
:1022C000FEF796F800BF00BFBF48288000BFF8BDEA
:1022D000F8B504460D46002700BF00BFFEF784F89E
:1022E000074600BF08F08CFC00BF666900BF08F01D
:1022F00067FC00BF3846FEF77BF800BF00BFB2485E
:1023000028803046F8BDFFB585B00C461F460F99B2
:102310000E98884201D90E9800E00F980646042FC7
:102320000BD2701E0421814304221040002800D1EA
:1023300000E030460818049009E0701E39468143D9
:102340003840002800D100E030460818049010986A
:10235000002816D0002101221298009201910290CB
:102360001099049848430246334607990598FFF7A9
:1023700024FD0546129800889349884201D009B08F
:10238000F0BD079820606760A6600F98E060119824
:1023900060610020A061109800280FD02561002006
:1023A00005E004996918296004996D18401C10997A
:1023B000491E8142F5D80021296001E000202061FA
:1023C00081491298018000BFD9E7FFB585B0144656
:1023D0000FADE0CD002C00D17C4C012001A9E1C162
:1023E0000E9800902246089B06990598FFF78BFFF0
:1023F00009B0F0BDFFB585B014460FADE0CD002C9F
:1024000000D1724C206901A9E1C10E9800902246CA
:10241000089B06990598FFF776FF09B0F0BDF0B567
:1024200085B004460D46002003906069002827D03F
:1024300000BF00BFFDF7D8FF039000BF08F0E0FB2E
:1024400000BF6169A06988420ED300BF08F0B8FBE5
:1024500000BF0398FDF7CCFF00BF00BF5A48CE3045
:102460002880002005B0F0BDA069401CA06100BF1D
:1024700008F0A6FB00BF0398FDF7BAFF00BF00BF3E
:1024800000BF00BFFDF7B0FF039000BF08F0B8FB2E
:1024900000BF206900280FD026693068206100BF86
:1024A00008F08EFB00BF0398FDF7A2FF00BF00BF3E
:1024B000454828803046D5E700BF08F081FB00BFC3
:1024C0000398FDF795FF00BF00BF00270021E068DB
:1024D0006A4623C2384621460EC9FFF76EFC0646FF
:1024E00028883949884201D00020BBE73046B9E747
:1024F000F8B504460D46164600276069002824D02A
:1025000000BF00BFFDF770FF074600BF08F078FB73
:1025100000BFA06900280CD100BF08F051FB00BF2C
:102520003846FDF765FF00BF00BF2748CD3030803B
:10253000F8BDA069401EA06100BF08F041FB00BFCC
:102540003846FDF755FF00BF00BF00BF00BFFDF7D5
:102550004BFF074600BF08F053FB00BF206928600F
:10256000256100BF08F02CFB00BF3846FDF740FF97
:1025700000BF00BF1448308000BFD9E7F8B504465B
:102580000D4600276069002817D000BF00BFFDF787
:102590002BFF074600BF08F033FB00BFA16960694D
:1025A000461A00BF08F00CFB00BF3846FDF720FFBD
:1025B00000BF00BF0448288003E000260248CF3057
:1025C00028803046F8BD0000102700000CF9FF1FDE
:1025D00010B502460B461146002001E0491C401C84
:1025E000002904D00C78002C01D09842F6D310BDFD
:1025F00030B504460021C9432046FFF7E9FF0546F0
:10260000284630BD70B504460D461646002C00D154
:1026100070BD002D01D10020FAE721462A46002393
:1026200004E010780870491C521C5B1C002906D07D
:10263000002A04D01078002801D0B342F1D3002939
:1026400001D0002A01D10020E2E7B34201D20020EC
:1026500008702046DCE770B504460D460022D243E0
:1026600029462046FFF7CEFF0646304670BD70B5BE
:1026700003460C461546002B00D170BD002C01D13D
:102680000020FAE7002D01D11846F6E7194600E0D0
:10269000491C002902D008780028F9D1002901D16D
:1026A0000020EAE72246002604E010780870491C62
:1026B000521C761C002906D0002A04D0107800286D
:1026C00001D0AE42F1D3002901D0002A01D100206F
:1026D000D3E7002008701846CFE770B504460D46D2
:1026E0000022D24329462046FFF7C1FF0646304666
:1026F00070BDF7B582B005460B460498002801D19D
:1027000005B0F0BD002D07D1002B01D10020F7E767
:10271000187842421046F3E7002B02D12A7810467F
:10272000EEE729461C460E4623460194761C019B83
:10273000581C01900020009008E0491C641C761C85
:102740000198401C01900098401C00900878277860
:10275000B8420BD10878002808D0002E06D0019886
:10276000002803D0049F0098B842E6D3049F009845
:10277000B84201D10020C3E708782778B84203D0D7
:1027800008782778C21B10E00878002801D10022C1
:102790000BE0002E08D10198002801D1002204E0AE
:1027A00001980078424200E032781046A8E770B500
:1027B00004460D460022D24329462046FFF799FFE2
:1027C0000646304670BDF7B586B00E46089800281C
:1027D00001D109B0F0BD0698002809D1002E00D122
:1027E000F7E73078FFF7F8F807467C422046F0E735
:1027F000002E07D106990878FFF7EEF805462C461B
:102800002046E6E706980590049605980390049EF6
:1028100002960398401C0390029E701C029005993A
:102820000878FFF7D9F80546049E3078FFF7D4F80A
:1028300007460020019018E00598401C0590049878
:10284000401C04900398401C03900298401C029086
:102850000198401C019005990878FFF7BDF80546DE
:1028600004990878FFF7B8F80746BD420DD10598DE
:102870000078002809D00398002806D00298002884
:1028800003D0089901988842D6D3089901988842C4
:1028900001D100209DE7BD4201D0EC1B18E0002DC6
:1028A00001D1002414E0039800280BD102980028DD
:1028B00001D100240CE002990878FFF78DF8074653
:1028C0007C4205E003990878FFF786F805462C4618
:1028D00020467EE770B504460D460022D2432946C5
:1028E0002046FFF770FF0646304670BD30B50446FF
:1028F0000B461546002C00D130BD002B01D1002025
:10290000FAE72146002201E0491C521C002907D0A9
:102910000878002804D00878A84201D09A42F3D35E
:10292000002901D10020E7E79A4201D30020E3E724
:102930000878A84201D00020DEE70846DCE770B541
:1029400005460C4622460021C9432846FFF7CEFF24
:102950000646304670BDFCB505460E461746002DAE
:1029600000D1FCBD002E01D10020FAE72C46701EDC
:10297000019020460199FFF72BFE00900098241843
:10298000002C01D10020ECE700E0641EAC4202D034
:102990002078B842F9D12078B84201D00020E0E791
:1029A0002046DEE770B505460C4622460021C943A5
:1029B0002846FFF7D0FF0646304670BD70B5044686
:1029C0000D46002C00D170BD002B01D10020FAE78C
:1029D00021461E4605E00878A84200D10A70491C2D
:1029E000761E002904D00878002801D0002EF2D1EC
:1029F0002046E8E7F0B504460D4616460023DB43C3
:102A0000324629462046FFF7D9FF07463846F0BD33
:102A1000F0B588B006460F461546002E01D108B025
:102A2000F0BD002F01D10020F9E7002D01D10020D9
:102A3000F5E7681C002800D001E00020C0430690A4
:102A400029463046FFF7C4FD079038460699FFF740
:102A5000BFFD0446002C01D13046E0E707988442D0
:102A600001D90020DBE70798301801900198002871
:102A700000D1D4E7381901900198002800D1CEE7A1
:102A80000798001B059000200490039000BF049855
:102A900030180090224639460098FFF72AFE02902F
:102AA0000298002801D1012000E000200390049842
:102AB000401C04900398002803D10599049888428B
:102AC000E5D90298002801D00020A8E70098A6E7E1
:102AD00070B504460D460022D24329462046FFF732
:102AE00097FF0646304670BDFFB591B00F461646BB
:102AF0001A9D1D98002801D115B0F0BD002003904B
:102B00000490012F01DA01200390022E01D3242E1C
:102B100001D901200390002D32D02846FEF7F6FEA1
:102B200002900298012802D00120039028E0302D65
:102B300026D028463038C0B207901B98012804D010
:102B400028464138C0B2069003E028466138C0B23A
:102B500006900A2E02D80798B04209DB0A2E09D93E
:102B600007980A2804D330460A380699884201D9C2
:102B7000012000E0002005900598012800D1039075
:102B80001D9C002004900398002843D111980F90B9
:102B900011980E9001200D9008E00D98401CC0B2D5
:102BA0000D9031460E9808F0E7FE0E900E98B04258
:102BB000F3D21498012800D100E000200A900D996A
:102BC0000A980818B84223DC002001900D98B842FA
:102BD00001DA0D9800E038460C90002D07D00B97D5
:102BE0000C98391A0A98081AC0B2099006E00A9996
:102BF0000C984018C0B20B9000200990099800284A
:102C000008DD302D01D1012000E00020049001E01A
:102C1000012003900398002800D00B970B982418EC
:102C20001C98002801D000202070641E0020109005
:102C30004AE00398002841D10F98002802D110984B
:102C400000281FD131460F9808F096FEC8B20890B0
:102C500008980A2804D2089830302070641E0BE0CF
:102C60001B98012804D0089837302070641E03E0B8
:102C7000089857302070641E31460F9808F07CFE8B
:102C80000F901EE01498012813D10498002802D157
:102C90000198002807D0049800280AD00B98401EFD
:102CA0001099884205D12D202070641E01200190CA
:102CB00007E0002D05D02570641E02E03F20207043
:102CC000641E1098401C10900B9910988842B0D345
:102CD0000398002801D000200EE71D980CE7FFB5EF
:102CE00085B01C460EADE0CD0023039702960195FA
:102CF000009405A807C8FFF7F7FE0490049809B0F0
:102D0000F0BDFFB585B004461F46002C02DA6542CF
:102D1000012601E0254600260E9A0F9910983346A9
:102D200000970192029103902846079A0699FFF7AF
:102D3000DBFE0490049809B0F0BDFFB58DB00646E7
:102D400015460E98002802D10BA80E9000BF0E98D1
:102D500006601698002802D108A8169000BF00212E
:102D600016980170002E02D1002011B0F0BD012D87
:102D700001D0242D01D90020F7E734462078FEF752
:102D8000B3FD039004E0641C2078FEF7ADFD0390D2
:102D900003980128F7D020782B2802D02D280BD1BA
:102DA00003E0641C0020029009E01098012800D183
:102DB000641C0120029002E00020029000BF00BFCE
:102DC0000C94002D04D0082D1CD0102D36D11EE0FF
:102DD0002078302814D1641C2078582802D0782814
:102DE0000BD100BF102567783846FEF761FD0590CE
:102DF0000598012800D1641C01E0082500BF00E00F
:102E00000A251CE02078302800D1641C17E02078C7
:102E1000302812D1641C2078582802D078280AD192
:102E200000BF67783846FEF743FD059005980128F6
:102E300000D1641C00E000BF00BF00E000BF00BF85
:102E4000002009900190009046E027783846FEF770
:102E5000E1FC0690069801283CD13846FEF714FDA7
:102E600007900798012804D138463038C0B20A903C
:102E70000FE03846FEF7F4FC04900498012804D1D2
:102E800038465738C0B20A9003E038463738C0B2E7
:102E90000A900A98A8421ADA0198002815D1A800C9
:102EA00030490958099881420DD30998684309901F
:102EB0000A990998401809900A990998884204D2F9
:102EC0000120019001E001200190641C04E0012038
:102ED000009001E00120009000980028B5D00198F2
:102EE000012801D1801E09900C98844202D00E98CE
:102EF000046001E00E98066016990298087009981F
:102F000033E7F8B504460D46164600200346324620
:102F1000294600902046FFF710FF07463846F8BDC7
:102F2000FEB505460E46174601A801233A4631462E
:102F300000902846FFF701FF044668460079002804
:102F400006D10948844200D900E02046029006E0FC
:102F50000548844201D9C00700E06042029002980F
:102F6000FEBD000064CC0000FFFFFF7F00241DE0D9
:102F700000BF00BFFDF738FA044600BF07F040FE6F
:102F800000BFF8480068401CF6490860F648006831
:102F9000401CF549086000BF07F012FE00BF204644
:102FA000FDF726FA00BF00BF07F0DAFCE0E710B536
:102FB0008AB004460020EB4908600B2000210591EF
:102FC0000894069107900846E8490968E84A12689B
:102FD000E84B1B6801930292039104903F20002369
:102FE000E54AE6A10090EA4804F0DDFD0AB010BD14
:102FF000002109E00C224A43E64BD018002202814E
:10300000026042604A1CD1B24029F3D3704770B5C8
:10301000044607F0AEFC0020DF490870DF49087065
:10302000DF490870DF490860DF490860DF49087040
:10303000DF490870DF490870DF490860DF49086030
:10304000DF490860DF48006800280CD0DE480568CA
:10305000002D08D0DB48066803E0761E00202860BB
:103060002D1D002EF9D10020D8490860D8490860EC
:10307000D8490860D8490860D8490860D84908602C
:10308000D8490860D8490870FDF768F9FFF7B0FF24
:10309000204601F0BCFD2088002800D070BD2046ED
:1030A00002F0E3F82088002800D0F7E7204602F07D
:1030B000EFF82088002800D0F0E7204603F001F860
:1030C0002088002800D0E9E7204603F04BFC208848
:1030D000002800D0E2E7204604F050F820880028BD
:1030E00000D0DBE7204606F0D6FA2088002800D082
:1030F000D4E7204601F011FF2088002800D0CDE75A
:103100002046FFF754FF2088002800D0C6E720465D
:1031100006F0A7FC2088002800D0BFE7204604F076
:103120005EFB2088002800D0B8E7204607F027FB88
:103130002088002800D0B1E700F04EFDFDF70CF923
:1031400000BFABE795480078012800D0704792484F
:103150000078FA2800DBF9E78F480078401C8E4998
:10316000087000BFF2E710B500248C4800780128F1
:1031700000D010BD00BFFDF737F9044600BF8648F8
:103180000078002805D100BF2046FDF731F900BFC7
:10319000EFE781480078401E7F49087008460078B4
:1031A000002805DD00BF2046FDF722F900BFE0E75B
:1031B0007B480078002805DD00BF2046FDF718F9A0
:1031C00000BFD6E7FDF7D4F87949087008460078C3
:1031D0000C2148436F490858734908600846006845
:1031E00070490968884205D100BF2046FDF700F903
:1031F00000BFBEE76C48006880304068401C6A49E8
:1032000009688031486079480068401C7749086047
:1032100007F06BFB00BF2046FDF7EAF800BF00BFD8
:10322000A7E710B500245C480078002800DD10BD39
:103230005B480078002800DDF9E700BFFDF7D4F80F
:10324000044600BFFDF794F8594908700846007815
:103250000C2148434F490858534908600846006804
:1032600050490968884205D100BF2046FDF7C0F8E3
:1032700000BFDCE74C48006880304068401C4A4989
:1032800009688031486059480068401C5749086007
:1032900007F027FB00BF2046FDF7AAF800BF00BFDC
:1032A000C5E710B53E480078012803D1FCF7D3FFED
:1032B0004149086010BD70B50446002536480078C5
:1032C000002802DD4A48208070BD3448007801287B
:1032D00002D048482080F7E731480078FA2802DB1E
:1032E00045482080F0E700BF00BFFDF77DF80546A8
:1032F00000BF07F085FC00BF29480078401C284922
:103300000870FFF7CEFF00BF07F05AFC00BF284649
:10331000FDF76EF800BF00BF0020208000BFD3E79C
:1033200010B51F480078002810D1FCF794FF2249FF
:103330000968441A21480068A04201D21F4804606D
:103340001F480068A04201D21D48046010BD70B53E
:10335000044600251048007800284FDD2448C01C92
:10336000208070BD5CE0FF1FC0E0FF1F00CD0000AB
:10337000FCCC0000F8CC00006D2F000075432F4FEF
:10338000532D4949492049646C65205461736B0091
:10339000A00C0020240E002060E0FF1F68E0FF1F4B
:1033A000B0E0FF1F18E1FF1F1CE1FF1F96E0FF1FA9
:1033B00097E0FF1F98E0FF1FA4E0FF1FA8E0FF1F9A
:1033C000ACE0FF1F28CD000024CD000040E0FF1F2F
:1033D00044E0FF1F48E0FF1F4CE0FF1F50E0FF1FCD
:1033E00054E0FF1F58E0FF1FDEE0FF1FD4E0FF1F87
:1033F000626D0000895E000009520000FE480078FE
:10340000012802D0FD48208070BDFD4800780028CA
:1034100002D1FC482080F7E700BF00BFFCF7E4FFC3
:10342000054600BF07F0ECFB00BFF5480078401EE2
:10343000F34908700846007800280CDD00BF07F04B
:10344000BFFB00BF2846FCF7D3FF00BF00BFED481D
:10345000401E2080D8E7FFF763FF00BF07F0B0FBF6
:1034600000BF2846FCF7C4FF00BF00BFFFF7D9FE2E
:103470000020208000BFC7E710B50446DE48007872
:1034800000281BD1FCF774FFDF490870084600785C
:10349000DE490870DC4800780C214843DC490858B4
:1034A000DC49086008460068DB4908600120D24911
:1034B000087007F007FAD948208002E0CF48401C86
:1034C000208010BD014600200880D548704770B5A7
:1034D000002809D0B82546686E5004460834226892
:1034E00093681D6AC56113E034256D5C022D02D01E
:1034F000072D08D103E0CBA6B8256E5007E0CBA678
:10350000B8256E5003E0CCA6B8256E5000BF00BFB2
:1035100070BDF0B58E683727BD5D0789002F07D1D4
:103520000127078100274F600F600160416024E0A0
:1035300007897F1C0781026806E0946837273F5D92
:10354000AF4200DD02E05268002AF6D100BF002A37
:1035500006D100274F6043680B60596041600CE062
:103560001768002F04D111600F604A60016004E009
:1035700013680B604A6059601160F0BD10B5C287D6
:10358000016300230AE000244C600C600C614C6174
:103590000C83CC61886020315C1CA3B29342F2DBC7
:1035A00010BDF8B505463720405D0C2148439849C9
:1035B00044182F69EE68002F11D1002E08D1002089
:1035C0002081206060603721485DFCF7F5FE0FE048
:1035D0002089401E208100203061266008E020897B
:1035E000401E2081FE60002E01D1676000E037613F
:1035F00000202861E860F8BD70B504460D46002D36
:1036000008D02A4621468D4806F09AFA0321362032
:10361000015502E00221362001552046FFF7C1FF87
:1036200070BDFFB581B005460C4616467A48006865
:1036300020300675002178480068203041757648B2
:1036400004990068FFF7D8FF002C0DD027460837F3
:10365000EC600122294670480068FFF78FFF294679
:103660003846FFF756FF06E000206B490968C88717
:10367000694909680863684801682046FFF727FF21
:1036800005B0F0BD10B50489012C03D100240460FD
:10369000446011E00C68002C03D14B681C6003608F
:1036A0000AE04C68002C03D10A685460426003E0D1
:1036B0000A684B6853601A600489641E0481002400
:1036C0004C600C6010BDF8B50446256BE68F0AE02F
:1036D000EF6838460830009029460098FFF7D2FF7F
:1036E0002035701E86B2002EF2DC0020E0872063B9
:1036F000F8BD30B50346086BCC8F08E0C5689D4225
:1037000002D10361C26104E02030651EACB2002C1E
:10371000F4DC00BF30BD10B537231B5C0C246343C1
:103720003B4C19190B89002B07D101230B81002376
:10373000C36003610860486009E00B895B1C0B8172
:103740000B68C360002303610A681061086010BD44
:1037500010B537231B5C0C2463432D4C19190B89BE
:10376000002B07D101230B810023C3600361086094
:10377000486008E00B895B1C0B810023C3604A682A
:103780000261D060486010BD10B504463721085D65
:10379000FCF700FE3720005D1C490978884203D100
:1037A0002046FFF7D5FF02E02046FFF7B4FF10BD2B
:1037B00070B505460C4616463620005D030009F03C
:1037C000ECF9080506090A070857587D00BF00BF35
:1037D00000BF74E000BF3420005D032804D13246EE
:1037E00021462846FFF785FF002020650021542050
:1037F00001532664002D23E068E0FF1F895E00006E
:10380000B0E0FF1F646D000097E0FF1F96E0FF1F10
:10381000240E00201CE1FF1F18E1FF1F993A000051
:10382000C27600005461736B205100005461736BC9
:103830002053656D0000000020000000F0E0FF1F35
:1038400002D02046FFF73FFF3620005D032802D15B
:10385000204606F011FA2046FFF796FF0021362099
:10386000015501213520015500213420015526E064
:1038700000BF3420005D032804D13246214628468B
:10388000FFF737FF002020650021542001532664F4
:10389000002D02D02046FFF716FF3620005D0728D6
:1038A00002D1204606F0E8F9042136200155012115
:1038B0003520015500213420015500E000BF00BF34
:1038C00070BD70B5BFA6B8256E5004460834226896
:1038D000002A03D093681D6AC56101E0B9A5C561DE
:1038E00070BDF3B581B00446372102980855256BA9
:1038F000E78F12E0E86800900098064608363089A5
:10390000012807D929463046FFF7BCFE2946304634
:10391000FFF7FFFD2035781E87B2002FEAD1FEBDEC
:103920000021016041600181704703895B1C0381B4
:1039300003684B6000230B600268002A00D011600E
:1039400001600389012B00D14160704730B5034607
:10395000086BCC8F08E0C5689D4202D10361C2614B
:1039600004E02030651EACB2002CF4DC00BF30BD9A
:1039700070B506460C4615463620005D030009F07A
:103980000CF9080506090A070830315400BF00BFCA
:1039900000BF4BE000BF3420005D032804D12A465D
:1039A00021463046FFF7D2FF002020650021542039
:1039B000015325642046FFF786FE3620005D03286C
:1039C00002D1204606F058F92046FFF7DDFE00211F
:1039D00036200155022135200155002134200155A2
:1039E00024E000BF3420005D032804D12A4621468C
:1039F0003046FFF7ABFF0020206500215420015323
:103A000025642046FFF75FFE3620005D072802D1BF
:103A1000204606F031F904213620015502213520D7
:103A2000015500213420015500E000BF00BF70BDEA
:103A3000F0B5059C0D6BCE8F0AE0EF68874204D18C
:103A400028616A612B83EC6104E02035771EBEB2E9
:103A5000002EF2DC00BFF0BDFFB581B006460C467B
:103A600017460A9D3620005D030009F096F8080508
:103A700006090A070836376100BF00BF00BF58E0DB
:103A800000BF3420005D032807D100953A46214647
:103A90003046049BFFF7CCFF04E0276554210498CF
:103AA00008532564002E06D02046FFF70CFE214661
:103AB0003046FFF706FF3620005D032802D120467E
:103AC00006F0DAF82046FFF75FFE002136200155A8
:103AD00035200155342001552BE000BF3420005D16
:103AE000032807D100953A4621463046049BFFF74C
:103AF0009FFF04E027655421049808532564002E95
:103B000006D02046FFF7DFFD21463046FFF7D9FEFD
:103B10003620005D072802D1204606F0ADF80421CA
:103B2000362001550021352001553420015500E093
:103B300000BF00BF05B0F0BD10B501460C89002CD8
:103B400004D0012C03D0022C0CD101E000BF14E002
:103B500008684A6802610024C4601461D0600A6089
:103B600048600AE008684A68C36800241C61C460B1
:103B70000261D0600B60486000BF00BF10BD10B58F
:103B8000002400BFFCF730FC044600BF00200E49B3
:103B900008700E480E49086008460068803040688A
:103BA000401C0968803148600A480068401C094987
:103BB000086006F096FE00BF2046FCF719FC00BF27
:103BC00010BD00002000000097E0FF1F5C0D0020EA
:103BD0001CE1FF1FD4E0FF1F244A2549254A264A3D
:103BE0002649274A2748284A284A294A294A2A484A
:103BF0002A482B482B4A2C482C4A2D482D4A2E481F
:103C00002E482F482F48304A304A314A3148324AEC
:103C1000324A3348334834483448354835483648C2
:103C2000364A374A374A384A3848394839483A4A8A
:103C30003A4A3B4A3B483C483C483D493D483E4A5D
:103C40003E4A3F4A3F4A404A404A414A4148424A26
:103C5000424A43484348444A444A4548454A464AFA
:103C60004648474800BF00BF00BF70478CCD0000EA
:103C7000F0CE00008DCD00008ECD000090CD000074
:103C800094CD000098CD000095CD0000C0CD00007F
:103C9000C1CD0000C2CD0000C4CD0000C6CD0000E3
:103CA000C8CD0000CACD0000CCCD0000ECCD000096
:103CB000EECD0000F0CD0000F2CD0000F4CD00000C
:103CC000F6CD0000F8CD000024CE000025CE000087
:103CD00026CE000028CE00002ACE00002BCE000009
:103CE0002CCE00002ECE000030CE000032CE0000E0
:103CF00034CE000036CE000038CE000068CE000082
:103D000069CE00006ACE00006BCE00006CCE0000D1
:103D10006ECE000070CE000098CE000099CE00005C
:103D20009ACE00009BCE00009CCE00009ECE0000EC
:103D3000A0CE0000A4CE0000A5CE0000A6CE0000BC
:103D4000A7CE0000A8CE0000A9CE0000AACE000099
:103D5000ABCE0000ACCE0000AECE0000AFCE000077
:103D6000B0CE0000B2CE0000B4CE0000B5CE000050
:103D7000B8CE0000E8CE0000E9CE0000EACE000098
:103D8000ECCE0000F6A1C16100214161F54909684E
:103D9000002901D1816105E0F24909688161F14999
:103DA00009684861EF4908607047F8B504460E4657
:103DB00017461D4600200090EB480078002802DDE1
:103DC000EA482880F8BD00BF00BF00BFFCF70CFB2D
:103DD000009000BF06F014FF00BFE5480078401CCB
:103DE000E349087008460078012801D1FFF759FA25
:103DF00000BF06F0E5FE00BF0098FCF7F9FA00BF2F
:103E000000BF00BFDB482060666027620020606260
:103E100020460830FFF784FD2046FFF7B3FFD64861
:103E20000088401CD449088000BF00BF00BFFCF7D9
:103E3000DBFA009000BF06F0E3FE00BFCC4800783C
:103E4000401ECB49087008460078002801D1FFF7D2
:103E500067FA00BF06F0B4FE00BF0098FCF7C8FA8E
:103E600000BF00BF00BF0020288000BFAAE770B5D8
:103E70000446C2482060C2A060600020206225463F
:103E800008352846FFF74CFD70BD42698169002A5C
:103E900008D1B44B1960002901D000234B610023E5
:103EA00083610AE0002903D100239361436104E0A8
:103EB00091614A610023836143617047F7B584B023
:103EC000144600200090A8480078002804DDAE4881
:103ED0002080002007B0F0BD00BF00BF00BFFCF78E
:103EE00083FA009000BF06F08BFE00BFA048007868
:103EF000401C9F49087008460078012801D1FFF74F
:103F0000D0F900BF06F05CFE00BF0098FCF770FA25
:103F100000BF00BF00BF0498074608373D892E4602
:103F20000598002802D0012876D183E0002E45D1E3
:103F30000498FFF7AAFF90480088401E8E49088029
:103F40000498FFF794FF00BF00BF00BFFCF74CFAD6
:103F5000009000BF06F054FE00BF85480078401E68
:103F6000834908700846007800281AD1FFF7D8F96D
:103F70008648008800280BDD00BF06F021FE00BF48
:103F80000098FCF735FA00BF00BFFFF7F8FD11E01D
:103F900000BF06F015FE00BF0098FCF729FA00BF2D
:103FA00008E000BF06F00CFE00BF0098FCF720FA06
:103FB00000BF00BF00BF002020803AE000BF00BF6C
:103FC00000BFFCF711FA009000BF06F019FE00BF19
:103FD00067480078401E6649087008460078002847
:103FE0001BD1FFF79DF96948008800280BDD00BF51
:103FF00006F0E6FD00BF0098FCF7FAF900BF00BF2D
:10400000FFF7BDFD12E000BF06F0DAFD00BF00982B
:10401000FCF7EEF900BF09E04DE000BF06F0D0FD6F
:1040200000BF0098FCF7E4F900BF00BF00BF58488C
:1040300020807BE0FCF70FF901900BE038680390DB
:10404000039880680290019A02990498FFF790FC07
:10405000681E85B2002DF1D10498FFF716FF46487F
:104060000088401E444908800498FFF700FF00BF05
:1040700000BF00BFFCF7B8F9009000BF06F0C0FD1C
:1040800000BF3B480078401E394908700846007858
:10409000002801D1FFF744F900BF06F091FD00BFF1
:1040A0000098FCF7A5F900BF00BF00BFFFF7B9F803
:1040B000002020803AE000BF00BF00BFFCF794F969
:1040C000009000BF06F09CFD00BF29480078401E0C
:1040D000274908700846007800281AD1FFF720F910
:1040E0002A48008800280BDD00BF06F069FD00BFEC
:1040F0000098FCF77DF900BF00BFFFF740FD11E01D
:1041000000BF06F05DFD00BF0098FCF771F900BF2D
:1041100008E000BF06F054FD00BF0098FCF768F906
:1041200000BF00BF00BF1B48208000BF00BF30465B
:10413000D0E6F8B506460F4614461D4616480068F8
:104140004467154800684030858700201249096897
:104150008867012239463046069BFFF762FAF8BDB0
:104160002000000080E0FF1F60E0FF1FE12E000044
:10417000B0E0FF1F464C414784E0FF1F4E4F4E45C5
:104180003F464C4147000000C932000074E0FF1F69
:104190005F710000255E000018E1FF1FFFB58DB0C4
:1041A0000446169F179D00200290F74800780028CB
:1041B00004DDF6482880002011B0F0BDFF21013158
:1041C00010980840002802D001200C9001E0002047
:1041D0000C90002F01D00020386010980007000FCD
:1041E0000B9000BF00BFFCF7FFF8029000BF06F085
:1041F00007FD00BF0B9801287DD002287CD0042841
:1042000002D0082879D186E0266A0E990E400E98D1
:10421000864219D10C98012802D1206AB04320624D
:10422000DB4800688667002F01D0606A386000BFF5
:1042300006F0C6FC00BF0298FCF7DAF800BF00BF2A
:10424000002028803046B7E70121C90310980840B4
:1042500000280DD000BF06F0B3FC00BF0298FCF7A9
:10426000C7F800BF00BFC948801C28800020A3E712
:10427000C848007800280CDD00BF06F0A1FC00BF94
:104280000298FCF7B5F800BF00BFC34828800020A3
:1042900092E700BFBF480078401CBE49087008463E
:1042A0000078012801D1FEF7FCFF00BF06F088FC72
:1042B00000BF0298FCF79CF800BF00BF00BF0F983A
:1042C0000090214603A8109B0E9AFFF732FF00BF13
:1042D00000BF00BFFCF788F8029000BF06F090FC1A
:1042E00000BFAC480078401EAA4908700846007814
:1042F000002805D102E090E012E19EE1FFF710F8FE
:1043000000BF06F05DFC00BF0298FCF771F800BF2B
:1043100000BF00BF9EE1266A0E990E40002E19D004
:104320000C98012802D1206AB043206298480068A6
:104330008667002F01D0606A386000BF06F040FC3D
:1043400000BF0298FCF754F800BF00BF002028808F
:10435000304631E70121C9031098084000280DD0EC
:1043600000BF06F02DFC00BF0298FCF741F800BF2B
:1043700000BF8648801C288000201DE78548007803
:1043800000280CDD00BF06F01BFC00BF0298FCF704
:104390002FF800BF00BF8048288000200CE700BF36
:1043A0007C480078401C7B4908700846007801284A
:1043B00001D1FEF776FF00BF06F002FC00BF0298B5
:1043C000FCF716F800BF00BF00BF0F980090214611
:1043D00003A8109B0E9AFFF7ACFE00BF00BF00BF02
:1043E000FCF702F8029000BF06F00AFC00BF694823
:1043F0000078401E6749087008460078002801D1FF
:10440000FEF78EFF00BF06F0DBFB00BF0298FBF754
:10441000EFFF00BF00BF00BF1CE1216A0E9E8E436C
:104420000E98864219D10C98012802D1206A304397
:104430002062574800688667002F01D0606A3860A4
:1044400000BF06F0BDFB00BF0298FBF7D1FF00BF25
:1044500000BF002028803046AEE60121C903109835
:10446000084000280DD000BF06F0AAFB00BF02984C
:10447000FBF7BEFF00BF00BF4448801C288000201F
:104480009AE64448007800280CDD00BF06F098FB4F
:1044900000BF0298FBF7ACFF00BF00BF3E4828807A
:1044A000002089E600BF3B480078401C394908706D
:1044B00008460078012801D1FEF7F3FE00BF06F0A0
:1044C0007FFB00BF0298FBF793FF00BF00BF00BF58
:1044D0000F980090214603A8109B0E9AFFF729FE23
:1044E00000BF00BF00BFFBF77FFF029000BF06F0D8
:1044F00087FB00BF27480078401E26490870084601
:104500000078002801D1FEF70BFF00BF06F058FB32
:1045100000BF0298FBF76CFF00BF00BF00BF99E02F
:10452000216A0E9E8E43002E19D00C98012802D1CC
:10453000206A30432062164800688667002F01D049
:10454000606A386000BF06F03BFB00BF0298FBF7D3
:104550004FFF00BF00BF0020288030462CE601211D
:10456000C90310980840002818D000BF06F028FBA7
:1045700000BF0298FBF73CFF00BF00BF0348801C50
:104580002880002018E6000060E0FF1FAE610000F8
:1045900018E1FF1FB0E0FF1F636D0000F8480078CE
:1045A00000280CDD00BF06F00BFB00BF0298FBF7F4
:1045B0001FFF00BF00BFF34828800020FCE500BFBC
:1045C000EF480078401CEE49087008460078012842
:1045D00001D1FEF766FE00BF06F0F2FA00BF0298B6
:1045E000FBF706FF00BF00BF00BF0F9800902146F9
:1045F00003A8109B0E9AFFF79CFD00BF00BF00BFF1
:10460000FBF7F2FE029000BF06F0FAFA00BFDC48AA
:104610000078401EDA49087008460078002801D169
:10462000FEF77EFE00BF06F0CBFA00BF0298FBF754
:10463000DFFE00BF00BF00BF0CE000BF06F0C0FA05
:1046400000BF0298FBF7D4FE00BF00BFCE48288011
:104650000020B1E500BFFEF7E4FD00BF00BFFBF79F
:10466000C3FE029000BF06F0CBFA00BFC748006847
:104670002030407D002806D001280DD002282DD002
:1046800003283ED11AE0002F03D0C0480068006C18
:1046900038600020288041E0002F03D0BB4800682C
:1046A000006C386000BF06F08BFA00BF0298FBF781
:1046B0009FFE00BF00BFB64828802FE0002F01D02A
:1046C0000020386000BF06F07BFA00BF0298FBF7BD
:1046D0008FFE00BF00BFAF4828801FE0002F03D02F
:1046E000AA480068006C386000BF06F069FA00BF95
:1046F0000298FBF77DFE00BF00BFA3486338288007
:104700000CE000BF06F05CFA00BF0298FBF770FEF9
:1047100000BF00BF9B48CB30288000BF00BF288867
:10472000002801D0002047E598480068866F0C9863
:10473000012821D10B9801280BD002280AD0042887
:1047400002D008280AD100E000BF206AB0432062EE
:1047500011E000BF206A304320620CE000BF06F089
:104760002FFA00BF0298FBF743FE00BF00BF864848
:104770002880002020E500BF00BF06F021FA00BF1E
:104780000298FBF735FE00BF00BF002028803046AE
:1047900012E5F7B584B00E461446002001907E481D
:1047A0000078002805DD7A48401C2080002007B0F2
:1047B000F0BD00BF00BFFBF717FE019000BF06F081
:1047C0001FFA00BF049805460835288900280DD136
:1047D00000BF06F0F5F900BF0198FBF709FE00BF26
:1047E00000BF6B48801C20800020E0E700BF6448C9
:1047F0000078401C6249087008460078012801D101
:10480000FEF74FFD00BF06F0DBF900BF0198FBF794
:10481000EFFD00BF00BF00BF0027FBF71CFD0290AB
:104820000EE0286880680390029A03990498FEF7C6
:10483000BFFF781C87B2FF200130864200D002E023
:1048400028890028EDDC00BF00BF00BF00BFFBF7D8
:10485000CBFD019000BF06F0D3F900BF48480078B7
:10486000401E4749087008460078002801D1FEF72D
:1048700057FD00BF06F0A4F900BF0198FBF7B8FD93
:1048800000BF00BF00BF0120C0033040002801D19D
:10489000FEF7C7FC00202080384688E770B5044644
:1048A00000263D480078002804DD3948401D20805E
:1048B000002070BD00BF00BFFBF796FD064600BF9D
:1048C00006F09EF900BF31480068856F00BF06F012
:1048D00077F900BF3046FBF78BFD00BF00BF00201B
:1048E00020802846E5E770B504460D461646A567C4
:1048F0000021352001553420015526643620005D05
:10490000030008F04AF9080506090A080718191DE6
:1049100000BF00BF00BF14E000BF3620005D0328C9
:1049200002D1204605F0A8F92046FEF72DFF002110
:104930003620015505E000BF04213620015500E076
:1049400000BF00BF2046FEF7BEFE70BDFFB585B0BC
:1049500004460020009000BF00BFFBF745FD00901B
:1049600000BF06F04DF900BF0798002816D00128B7
:104970001AD00121C903401A11D001281AD114E01C
:10498000B0E0FF1F636D0000255E000018E1FF1F0F
:10499000A9610000D972000060E0FF1F00BF206A1B
:1049A00006990843206214E000BF216A06988143FB
:1049B00021620EE000BF06F003F900BF0098FBF78C
:1049C00017FD00BF00BF95490E980180002009B077
:1049D000F0BD00BF08986062204608300190019841
:1049E000008900280DD100BF06F0EAF800BF00984A
:1049F000FBF7FEFC00BF00BF00210E980180206A7B
:104A0000E5E700BF86480078401C854908700846E5
:104A10000078012801D1FEF744FC00BF06F0D0F871
:104A200000BF0098FBF7E4FC00BF00BF00BF019887
:104A30000768BD6886E0786802907C20405B0007CC
:104A4000000F0390039801281FD002282AD00428C1
:104A500002D0082832D10CE0206A696F084006466F
:104A6000686FB04204D131462846089AFFF73BFFF1
:104A700061E0206A696F08400646002E04D0314686
:104A80002846089AFFF72FFF55E0686F216A884390
:104A90000646686FB04204D131462846089AFFF7AF
:104AA00022FF48E0686F216A88430646002E04D042
:104AB00031462846089AFFF716FF3CE000BF00BFCA
:104AC00000BFFBF791FC009000BF06F099F800BF13
:104AD00053480078401E5249087008460078002864
:104AE0001AD1FEF71DFC4F48008800280BDD00BFDF
:104AF00006F066F800BF0098FBF77AFC00BF00BF25
:104B0000FFF73DF811E000BF06F05AF800BF00982B
:104B1000FBF76EFC00BF08E000BF06F051F800BFD5
:104B20000098FBF765FC00BF00BF00BF3E490E9830
:104B3000018000204BE700BF029F002F01D0BD681D
:104B400000E00025002D00D075E700BF00BF00BFCA
:104B5000FBF74AFC009000BF06F052F800BF304857
:104B60000078401E2E49087008460078002801D1C0
:104B7000FEF7D6FB00BF06F023F800BF0098FBF756
:104B800037FC00BF00BF00BF0121C90307980840E0
:104B9000002801D1FEF745FB00BF00BFFBF724FC56
:104BA000009000BF06F02CF800BF206A049000BF00
:104BB00006F006F800BF0098FBF71AFC00BF00BF24
:104BC00000210E980180049801E7FFB585B00D46DD
:104BD00016461C46FBF73FFB0746144800780028A2
:104BE0000BDD00231A466846E0C00394104805997F
:104BF00000F024F8002009B0F0BD3B4632462946BB
:104C000000940598FFF7A2FE04900498F3E70021B2
:104C1000084A1160084A118001807047255E000033
:104C2000B0E0FF1F74E0FF1FFF3A000060E0FF1FCD
:104C3000464C414780E0FF1F84E0FF1FF8B5044663
:104C40000D4616461F460020009000BF00BFFBF730
:104C5000CBFB009000BF05F0D3FF00BFE448008805
:104C6000E449098888423FDAE1480088401CE0496D
:104C70000880E14800880988884203DADC48008817
:104C8000DD490880DD4800680460DC480068856014
:104C9000DA480068C660D94800680782D749069894
:104CA00009684861D549079809680883D349089875
:104CB0000968C861D14800684068D049086001208F
:104CC000CF490881CF48086048600020FBF762FBAD
:104CD000CD480078002803D0CB480078CB49087035
:104CE00000210998018007E0C9480088401CC84994
:104CF0000880C8490998018000BF05F061FF00BF26
:104D00000098FBF775FB00BF00BFF8BD3EB5C24879
:104D10000068C24A0168881A91427AD010DCC04803
:104D2000081800283FD0BF494018002815D0BE49B8
:104D30004018002860D0BD49401800286AD13FE0E3
:104D4000BB494018002850D0BA494018002862D00A
:104D5000B94940180028F1D110E002A8AE4D0090EA
:104D60002D68EB69AC4D2D682A8BAB4D2D686969B8
:104D7000A94D2D68A868FFF7E9FD72E002A9A648D1
:104D80000068C069A44D019100902D682B8BA24D45
:104D90002D682A8AA04D2D68E9689F4D2D68A86866
:104DA00001F0EDFC5DE09C4B1B68DA699A4B1B68D7
:104DB000198B994B1B68986802AB02F0BCF850E065
:104DC00002A995480068C069934D019100902D6833
:104DD0002B8B914D2D682A8A8F4D2D68E9688E4D59
:104DE0002D68A86803F03DFB3BE08B4909688868A3
:104DF00002A903F00FFD34E0874B1B68DA69864B8C
:104E00001B68198B844B1B68986802AB03F0B2FFD8
:104E100027E007E024E080490968886802A904F0D7
:104E200040FB1EE07C48006802AB0021C269834859
:104E300003F0A0FF82480068401E814908600846D0
:104E4000006800280BD17F4800680860FBF703FA70
:104E5000044602AB224600217B4803F08BFF00E0B2
:104E600000BF00BF3EBD002756E0002652E000BF55
:104E700000BFFBF7B9FA074600BF05F0C1FE00BF4F
:104E80005B480088002812D15D49088108604860AD
:104E9000FBF792FA00BF05F093FE00BF3846FBF720
:104EA000A7FA00BF00BFFEF7BCF9012632E000BF41
:104EB00005F086FE00BF3846FBF79AFA00BF00BF38
:104EC000FBF7C9F90546FFF721FFFBF7C4F9441BBF
:104ED0005E480068A04201D25C48046000BF00BF89
:104EE000FBF782FA074600BF05F08AFE00BF4A487A
:104EF00000684068484908603D480088401E3C49B9
:104F0000088000BF05F05CFE00BF3846FBF770FA72
:104F100000BF00BF002EAAD0A7E7F0B589B00546B4
:104F200000203B4908804A480068002804D13948DD
:104F3000401E288009B0F0BD2E480088022803DA00
:104F40003448401C2880F5E700204049086040486C
:104F500004682646203600270CE03E4820600020EA
:104F6000A060E0602082606120836660203420368B
:104F7000781C87B21F4800888742EEDB203C34480B
:104F8000066866601D4806602348066000201849D0
:104F900008801949088030480068002803D11D485E
:104FA000801C2880C6E72D4800682D490968884282
:104FB00003D21848C01C2880BCE7032000210591BB
:104FC000089506910790084624490968254A126801
:104FD000214B1B6801930292039104900020034629
:104FE000214A22A10090074802F0DDFD00BFA1E7A1
:104FF00074E0FF1F0CCD000076E0FF1F6CE0FF1F88
:10500000240E00205C0D002096E0FF1F98E0FF1F9B
:1050100078E0FF1F5346000070E0FF1F5449434BE8
:10502000ADBAB2BE0DF90BFAF2F8F7FF0006F6FFC3
:1050300000F7FDF700FFEFFF03FE0FFEE011002079
:1050400014E1FF1F10E1FF1FC81200207CE0FF1FCA
:1050500008CD00004E4F4E4514CD00001CCD000081
:1050600054CD000018CD0000674E000075432F4F4F
:10507000532D494949204953522051756575652082
:105080005461736B00000000002181617A49096856
:10509000002901D1C16105E077490968C1617649FC
:1050A00009688861744908607047FFB585B0044697
:1050B00015461F460020019070480078002804DD46
:1050C0006F490F98018009B0F0BD02952E46781EF9
:1050D00080B203900020049008E00E9836180298E1
:1050E000066002960498401C80B2049003990498CC
:1050F0008842F2DB00210298016000BF00BF00BFC0
:10510000FBF772F9019000BF05F07AFD00BF5D4822
:105110000078401C5B49087008460078012801D1DE
:10512000FEF7BFF800BF05F04BFD00BF0198FBF78D
:105130005FF900BF00BF00BF534820600698A06021
:105140006560E560A78267820E9820822046FFF79F
:105150009BFF4E480088401C4C49088000BF00BFA0
:1051600000BFFBF741F9019000BF05F049FD00BF0A
:1051700044480078401E43490870084600780028DB
:1051800001D1FEF7CDF800BF05F01AFD00BF019870
:10519000FBF72EF900BF00BF00BF00210F98018070
:1051A00000BF90E7F8B504460D46002700BF00BFDA
:1051B000FBF71AF9074600BF05F022FD00BFA08AE1
:1051C00000280DD100BF05F0FBFC00BF3846FBF7FF
:1051D0000FF900BF00BF2A48093028800020F8BD21
:1051E000E6683068E060A08A401EA08200BF05F03B
:1051F000E7FC00BF3846FBF7FBF800BF00BF00200C
:1052000028803046EBE7F8B504460D4616460027E1
:1052100000BF00BFFBF7E8F8074600BF05F0F0FC51
:1052200000BFA08A618A88420CDB00BF05F0C8FC81
:1052300000BF3846FBF7DCF800BF00BF1048401C39
:105240003080F8BDE0682860E560A08A401CA0823C
:1052500000BF05F0B5FC00BF3846FBF7C9F800BF3A
:1052600000BF0020308000BFEBE70021024A116040
:10527000064A11800180704788E0FF1F60E0FF1F31
:10528000B9560000B0E0FF1F4D454D208CE0FF1FD8
:1052900070B50246664D286829681031654D2D8825
:1052A0006D1EACB2002308E0016000254560058159
:1052B000C560103010315D1CABB2A342F4DB002599
:1052C000056045600581C560594D2D685A4E3560B1
:1052D000584D2D88B5800025F5803581158070BD2D
:1052E00010B5014648894B89002B17DD0A68524BDF
:1052F0001B681360504C4B6823602346DB884C8945
:105300001B1B4D4CE38023469B884C891B194A4C40
:10531000A38000234B818B810B604B6010BD01810A
:10532000002242818281026042607047F0B50446EB
:105330000D466089002807D12880002A00D010601F
:105340003E4818800020F0BD61684E6808892880BA
:10535000002A01D0C8681060086860606068002892
:1053600002D12060608102E06089401E6081324885
:1053700000680860304801608088401C2E4FB8806B
:105380003846C088401EF880002018803046DAE792
:10539000FFB50D460A9C46890789BE4203DB274EAE
:1053A000761C2680FFBD244EB688002E02D1244EE6
:1053B0002680F7E7204E31681F4F0E683E603E465C
:1053C000B688761EBE803E46F688761CFE803E4637
:1053D0003689FF88BE4203DA174EF688164F3E81A3
:1053E0004689002E06D101604160012646810026D3
:1053F0000E600FE01027039E3E40002E04D103688C
:10540000196001600E6002E046680E6041604689E6
:10541000761C468186894789BE4201DA46898681A3
:105420004D600A81099ECE600026268000BFB9E744
:1054300038CD000030CD0000180E0020926500002D
:105440001D570000FEA1C16100214161FD490968AD
:10545000002901D1816105E0FA4909688161F949B2
:1054600009684861F74908607047F8B504460E4678
:1054700015460027F4480078002802DDF34828800C
:10548000F8BD00BF00BF00BFFAF7AEFF074600BF80
:1054900005F0B6FB00BFEE480078401CEC490870F0
:1054A00008460078012801D1FDF7FBFE00BF05F09A
:1054B00087FB00BF3846FAF79BFF00BF00BF00BF65
:1054C000E44820606660002020620021252001550C
:1054D0000020A06240212420015520460830FEF71C
:1054E0001FFA2046FFF7AEFFDB480088401CDA4970
:1054F000088000BF00BF00BFFAF776FF074600BF75
:1055000005F07EFB00BFD2480078401ED0490870ED
:1055100008460078002801D1FDF702FF00BF05F022
:105520004FFB00BF3846FAF763FF00BF00BF00BF64
:105530000020288000BFA3E710B50446C7482060BC
:10554000C7A06060002020620021252001550020B6
:10555000A06240212420015520460830FEF7E0F9E2
:1055600010BD42698169002A08D1B64B1960002933
:1055700001D000234B61002383610AE0002903D19D
:1055800000239361436104E091614A6100238361D8
:1055900043617047F7B586B0054616460020009077
:1055A000A9480078002804DDAF483080002009B009
:1055B000F0BD00BF00BF00BFFAF716FF009000BFAC
:1055C00005F01EFB00BFA2480078401CA0490870EF
:1055D00008460078012801D1FDF763FE00BF05F001
:1055E000EFFA00BF0098FAF703FF00BF00BF00BF4B
:1055F00028460830039003980789059707980028E4
:1056000002D0012877D184E00598002845D12846AA
:10561000FFF7A7FF90480088401E8F490880284662
:10562000FFF78AFF00BF00BF00BFFAF7DDFE009062
:1056300000BF05F0E5FA00BF85480078401E8449A8
:1056400008700846007800281AD1FDF769FE8748DF
:10565000008800280BDD00BF05F0B2FA00BF0098FB
:10566000FAF7C6FE00BF00BFFEF789FA11E000BFDF
:1056700005F0A6FA00BF0098FAF7BAFE00BF08E0EE
:1056800000BF05F09DFA00BF0098FAF7B1FE00BF19
:1056900000BF00BF002030803AE000BF00BF00BF65
:1056A000FAF7A2FE009000BF05F0AAFA00BF684812
:1056B0000078401E664908700846007800281BD113
:1056C000FDF72EFE6948008800280BDD00BF05F0BD
:1056D00077FA00BF0098FAF78BFE00BF00BFFEF715
:1056E0004EFA12E000BF05F06BFA00BF0098FAF71F
:1056F0007FFE00BF09E0DAE000BF05F061FA00BFFD
:105700000098FAF775FE00BF00BF00BF5848308010
:1057100008E12C6A002C6BD03720015D2420405D0D
:10572000814265D03620005D030007F036FA080597
:10573000141B1C15161D1E242046FDF732FF2420C5
:10574000415D372001553721085DFAF723FE2046D9
:10575000FDF7FEFF4BE000BF00BF2420415D372076
:10576000015544E000BF00BF00BF2420415D20463A
:10577000FEF7B7F83BE000BF00BF00BFFAF734FE0A
:10578000009000BF05F03CFA00BF31480078401E91
:105790002F4908700846007800281AD1FDF7C0FD8F
:1057A0003248008800280BDD00BF05F009FA00BF71
:1057B0000098FAF71DFE00BF00BFFEF7E0F911E008
:1057C00000BF05F0FDF900BF0098FAF711FE00BF19
:1057D00008E000BF05F0F4F900BF0098FAF708FEF2
:1057E00000BF00BF00BF234830800020DFE600BFBD
:1057F000FAF731FD01900CE00398006804900498DA
:10580000806802902846019A0299FEF7B1F8781E46
:1058100087B2002FF0D12846FFF7A3FE0E4800887C
:10582000401E0D4908802846FFF786FE00BF00BFD6
:1058300000BFFAF7D9FD009000BF05F0E1F91BE0C9
:105840002000000090E0FF1F60E0FF1FE12E00003D
:10585000B0E0FF1F4D55545894E0FF1F4E4F4E458A
:105860003F4D555445580000C932000074E0FF1FF9
:105870005F7100002D6E000000BFFD480078401EE3
:10588000FB49087008460078002801D1FDF748FD63
:1058900000BF05F095F900BF0098FAF7A9FD00BF19
:1058A00000BF00BFFDF7BDFC002030803AE000BF24
:1058B00000BF00BFFAF798FD009000BF05F0A0F907
:1058C00000BFEB480078401EE949087008460078A0
:1058D00000281AD1FDF724FDE648008800280BDDDA
:1058E00000BF05F06DF900BF0098FAF781FD00BF19
:1058F00000BFFEF744F911E000BF05F061F900BFF9
:105900000098FAF775FD00BF08E000BF05F058F9F0
:1059100000BF0098FAF76CFD00BF00BF00BFD6487B
:10592000308000BF00BF059841E6FFB589B005464D
:105930001C46129E00200090D0480078002803DD0D
:10594000CF4830800DB0F0BD002C01D00020206089
:1059500000BF00BFFAF748FD009000BF05F050F906
:1059600000BF2520405D00281BD1C6480068286282
:10597000C44800682030C17D2420415501212520E4
:105980004155002C01D0A86A206000BF05F018F92D
:1059900000BF0098FAF72CFD00BF00BF0020308048
:1059A000D0E7B849286A0968884215D12520405DAA
:1059B000401CC1B225204155002C01D0A86A2060AE
:1059C00000BF05F0FDF800BF0098FAF711FD00BF19
:1059D00000BFAD483080B5E70121C9030B980840EE
:1059E00000280CD000BF05F0EBF800BF0098FAF7D4
:1059F000FFFC00BF00BFA248801C3080A2E79C488B
:105A0000007800280BDD00BF05F0DAF800BF009831
:105A1000FAF7EEFC00BF00BF9C48308092E700BF61
:105A200093480078401C9249087008460078012885
:105A300001D1FDF736FC00BF05F0C2F800BF0098A9
:105A4000FAF7D6FC00BF00BF00BF2F6A3720C15D48
:105A50008C4800682030C07D81426BDD3620C05DFF
:105A6000030007F09AF80805161F20181721222AAC
:105A70003846FDF796FD834800682030C17D372009
:105A8000C1553721C85DFAF785FC3846FDF743FE5E
:105A90004FE000BF00BF7B4800682030C17D372049
:105AA000C15546E000BF00BF00BF76480068203007
:105AB000C17D3846FDF715FF3BE000BF00BF00BFCA
:105AC000FAF792FC009000BF05F09AF800BF684812
:105AD0000078401E664908700846007800281AD1F0
